:100000000C942A000C9447000C9447000C94470071
:100010000C9447000C9447000C9447000C94470044
:100020000C9447000C9447000C9447000C94470034
:100030000C942A040C9447000C9447000C9447003D
:100040000C9447000C9447000C9447000C94470014
:100050000C94470011241FBECFE5D8E0DEBFCDBF12
:1000600010E0A0E6B0E0E0EEFBE002C005900D92EB
:10007000A636B107D9F710E0A6E6B0E001C01D92A0
:10008000AE37B107E1F70E94E2030C94EE050C9441
:100090000000FC01862F41836083642F4FEF0E9494
:1000A00029010895FC018081618141E00E945D0188
:1000B0000895FC018081618140E00E945D01089506
:1000C000FC01808161810E94B0010895EF920F933D
:1000D000CF93DF93EC01862F49832A830B83EC8235
:1000E0006883642F4FEF0E94290188816A814FEF56
:1000F0000E94290188816B814FEF0E94290188812C
:100100006C814FEF0E942901DF91CF910F91EF9009
:1001100008950F931F93CF93DF938C01C62FDC01BB
:100120008C9111966C9140E00E945D01F8018081F4
:10013000628140E00E945D01D8018C9113966C9120
:1001400040E00E945D01F8018081648140E00E94EE
:100150005D01D8018C910E944A02FC0120818C2F04
:1001600090E0EC01D80111960C90119702C0CC0FD1
:10017000DD1F0A94E2F7C22BC083DF91CF911F915C
:100180000F9108951F93CF93DF93EC019B01842F70
:10019000453608F083E66AE00E94AC05682F192F07
:1001A000C9010E948900612F1A3008F069E0CE0170
:1001B0000E948900DF91CF911F9108958330D1F083
:1001C000843028F4813071F0823080F407C08530AB
:1001D000C9F0853098F08630E1F418C0309A319833
:1001E000329817C03098319A329813C0309A319AA9
:1001F00032980FC030983198329A0BC0309A3198AB
:10020000329A07C03098319A329A03C0309A319AA4
:10021000329A613041F0613018F0623049F406C022
:100220003E983F9805C03E9A3F9802C03E9A3F9A3A
:10023000379A089597B1892B87B9369A86B184FF8A
:10024000FDCF84B190E045B1342F20E0822B932B79
:100250000895813081F0813028F0823031F0833090
:1002600059F506C0EAE3F0E008C0E4E3F0E005C0B9
:10027000E1E3F0E002C0E7E3F0E0442319F04F3F90
:10028000D9F40EC0208181E090E0AC0102C0440F9F
:10029000551F6A95E2F7BA0160956223608308955D
:1002A000208181E090E0AC0102C0440F551F6A95A7
:1002B000E2F7BA01622B60830895813081F08130CA
:1002C00028F0823031F0833051F506C0EBE3F0E0E6
:1002D00008C0E5E3F0E005C0E2E3F0E002C0E8E3D7
:1002E000F0E0442379F04130D1F4208181E090E0C6
:1002F000AC0102C0440F551F6A95E2F7BA01622BA8
:1003000060830895208181E090E0AC0102C0440F39
:10031000551F6A95E2F7BA016095622360830895DC
:10032000813081F0813028F0823031F08330B1F4B7
:1003300006C0E9E3F0E008C0E3E3F0E005C0E0E375
:10034000F0E002C0E6E3F0E0208130E0C90102C045
:10035000959587956A95E2F78170089580E00895F4
:10036000813081F0813028F0823031F08330C1F467
:1003700006C0EBE3F0E008C0E5E3F0E005C0E2E32F
:10038000F0E002C0E8E3F0E0208181E090E0AC0121
:1003900002C0440F551F6A95E2F7BA0162276083D5
:1003A0000895813081F0813028F0823031F083303F
:1003B00069F406C0EAE3F0E008C0E4E3F0E005C059
:1003C000E1E3F0E002C0E7E3F0E06083089581300C
:1003D00081F0813028F0823031F0833069F406C03A
:1003E000EBE3F0E008C0E5E3F0E005C0E2E3F0E0B5
:1003F00002C0E8E3F0E060830895813081F081304D
:1004000028F0823031F08330C1F406C0EAE3F0E036
:1004100008C0E4E3F0E005C0E1E3F0E002C0E7E398
:10042000F0E0808190E09C0102C0359527956A95A7
:10043000E2F720FF04C08FEF089580E0089580E088
:100440000895813081F0813028F0823031F083309E
:1004500001F506C0EBE3F0E008C0E5E3F0E005C01D
:10046000E2E3F0E002C0E8E3F0E0442319F04130B9
:1004700081F408C080818F7080838081607F682BC9
:10048000608308958081807F808380816F70682B76
:1004900060830895813039F0813070F0823031F01E
:1004A000833061F406C028E330E008C025E330E083
:1004B00005C022E330E002C02BE330E0822F932F0F
:1004C0000895813039F0813070F0823031F083301E
:1004D00061F406C027E330E008C024E330E005C043
:1004E00021E330E002C02AE330E0822F932F089509
:1004F000813039F0813070F0823031F0833061F436
:1005000006C026E330E008C023E330E005C020E366
:1005100030E002C029E330E0822F932F08956C9AD7
:10052000689A699A81E064E04FEF0E94290181E0B6
:1005300065E04FEF0E94290181E067E04FEF0E94E4
:10054000290181E064E041E00E945D016E9A089516
:100550006C9881E066E04FEF0E9429016E9A089541
:100560006C9881E066E04FEF0E9429016F9A6E9AC5
:1005700078940895CF93C82F81E064E040E00E9412
:100580005D01CFB9779BFECF81E064E041E00E943E
:100590005D01CF910895779BFECF8FB108950E94A2
:1005A000CB028A3219F40E94CB0208950895CF93AA
:1005B000DF93EC018881882331F021960E94BA02F2
:1005C00089918823D9F7DF91CF910895CF93DF9355
:1005D000D82FC62F80E690E00E94D7028D2F0E9470
:1005E000BA028C2F0E94BA02DF91CF910895FC01CC
:1005F0008481813071F0813028F0823089F083303D
:10060000E1F415C083B78F7B83BF83B7877F83BF38
:1006100014C083B78F7B83BF83B7886083BF0DC04F
:1006200083B7806483BF83B7877F83BF06C083B7E8
:10063000806483BF83B7886083BF86818CBF8581D8
:10064000833081F1843028F48130C1F0823000F5AC
:100650000BC08530D9F1853078F1863009F440C07F
:10066000873009F050C046C083B78E7F83BF83B701
:100670008D7F83BF83B78B7F83BF089583B78160EE
:1006800083BF83B78D7F83BF83B78B7F83BF08957D
:1006900083B78E7F83BF83B7826083BF83B78B7F2F
:1006A00083BF089583B7816083BF83B7826083BFB0
:1006B00083B78B7F83BF089583B78E7F83BF83B754
:1006C0008D7F83BF83B7846083BF089583B78160C4
:1006D00083BF83B78D7F83BF83B7846083BF089553
:1006E00083B78E7F83BF83B7826083BF83B7846005
:1006F00083BF089583B7816083BF83B7826083BF60
:1007000083B7846083BF089583E080936C0081E0A9
:1007100080936B008DE780936D0087E690E00E94E8
:10072000F702089589B7826089BF089589B78D7FE0
:1007300089BF0895FC01608171818281938128EED7
:1007400033E040E050E00E94CC05822F932F0895C3
:100750000E949A036CE370E00E94B805862F972FE1
:100760000895CF93809164008D5F809365004091E0
:1007700064008EE690E065E770E00E94C20080E0D1
:100780000E941A01BC0180E090E00E941E052FE645
:1007900032E143E850E40E948A040E94F204C62F2A
:1007A00080916500C81720F08CE790E00E9452000D
:1007B000809164008C1720F08CE790E00E94590033
:1007C000CF9108950E94B0028AE790E063E047E08D
:1007D0000E94490083E790E063E046E00E94490000
:1007E0008CE790E063E045E00E9449000F2EF5E7BA
:1007F000CF2EF0E0DF2EF02DC60162E044E025E0D0
:1008000006E00F2EF7E0EF2EF02D0E946600CEE6F8
:10081000D0E0CE0162E040E021E002E00F2EF3E004
:10082000EF2EF02D0E94660086E062E00E94DE005E
:1008300040916400CE01B6010E94C2000E94B10343
:100840008FEF91EEA4E081509040A040E1F700C00E
:100850000000F4CF1F920F920FB60F9211242F9326
:100860003F934F935F936F937F938F939F93AF9338
:10087000BF93EF93FF9380916300882351F00E9410
:10088000CB028A3219F41092630033C00E94CB026B
:1008900030C080916200882339F00E94CB0280939F
:1008A00066001092620025C00E94CB029091660003
:1008B000992371F4813029F48AE790E00E94600066
:1008C00013C0823089F483E790E00E9460000CC07E
:1008D00090916600913041F480936400893220F059
:1008E00083E790E00E94600081E080936300809342
:1008F0006200FF91EF91BF91AF919F918F917F9196
:100900006F915F914F913F912F910F900FBE0F907C
:100910001F9018950CD0E6C0DED040F0D5D030F056
:1009200021F45F3F19F0C7C0511110C1CAC0EBD00C
:1009300098F39923C9F35523B1F3951B550BBB27A6
:10094000AA2762177307840738F09F5F5F4F220F53
:10095000331F441FAA1FA9F333D00E2E3AF0E0E84C
:1009600030D091505040E695001CCAF729D0FE2F98
:1009700027D0660F771F881FBB1F2617370748072A
:10098000AB07B0E809F0BB0B802DBF01FF279358E0
:100990005F4F2AF09E3F510568F08DC0D7C05F3F82
:1009A000ECF3983EDCF3869577956795B795F795C8
:1009B0009F5FC9F7880F911D9695879597F90895C0
:1009C000E1E0660F771F881FBB1F6217730784075C
:1009D000BA0720F0621B730B840BBA0BEE1F88F76B
:1009E000E095089598D088F09F5790F0B92F9927F7
:1009F000B751A0F0D1F0660F771F881F991F1AF02A
:100A0000BA95C9F712C0B13081F09FD0B1E0089516
:100A10009CC0672F782F8827B85F39F0B93FCCF397
:100A2000869577956795B395D9F73EF4909580951F
:100A3000709561957F4F8F4F9F4F0895E89409C03F
:100A400097FB3EF490958095709561957F4F8F4F01
:100A50009F4F9923A9F0F92F96E9BB279395F69517
:100A6000879577956795B795F111F8CFFAF4BB0F95
:100A700011F460FF1BC06F5F7F4F8F4F9F4F16C0F9
:100A8000882311F096E911C0772321F09EE8872F83
:100A9000762F05C0662371F096E8862F70E060E03F
:100AA0002AF09A95660F771F881FDAF7880F9695B8
:100AB000879597F9089597F99F6780E870E060E05F
:100AC00008959FEF80EC089500240A9416161706E7
:100AD00018060906089500240A941216130614062F
:100AE00005060895092E0394000C11F4882352F092
:100AF000BB0F40F4BF2B11F460FF04C06F5F7F4F4A
:100B00008F4F9F4F089557FD9058440F551F59F030
:100B10005F3F71F04795880F97FB991F61F09F3FEA
:100B200079F087950895121613061406551FF2CF13
:100B30004695F1DF08C0161617061806991FF1CF63
:100B400086957105610508940895E894BB2766278A
:100B50007727CB0197F90895991B79E004C0991F75
:100B6000961708F0961B881F7A95C9F78095089507
:100B7000AA1BBB1B51E107C0AA1FBB1FA617B707C3
:100B800010F0A61BB70B881F991F5A95A9F78095DF
:100B90009095BC01CD010895A1E21A2EAA1BBB1BA2
:100BA000FD010DC0AA1FBB1FEE1FFF1FA217B30739
:100BB000E407F50720F0A21BB30BE40BF50B661F4F
:100BC000771F881F991F1A9469F760957095809513
:100BD00090959B01AC01BD01CF010895F894FFCF22
:060BE0002A000101181BB0
:00000001FF
