:100000000C942A000C9447000C9447000C94470071
:100010000C9447000C9447000C9447000C94470044
:100020000C9447000C9447000C94C4090C944700AE
:100030000C9447000C94230A0C9447000C9447003E
:100040000C9447000C9447000C9447000C94470014
:100050000C94470011241FBECFE5D8E0DEBFCDBF12
:1000600011E0A0E6B0E0E6E2F5E102C005900D92F5
:10007000AE3DB107D9F712E0AEEDB1E001C01D927F
:10008000A930B107E1F70E94B6060C94910A0C94CE
:100090000000CF92DF92EF92FF920F931F93CF93C6
:1000A000DF936C01FB016A30710538F421E031E027
:1000B000E22EFF240AE010E010C0CB0121E0CAE0EC
:1000C000D0E02F5FBE010E94350ACB016A30710576
:1000D000C0F7222361F731E011C0C701831B9109EA
:1000E000E601C80FD91FCF01B8010E94350A805D13
:1000F0008883E62FF72F3F5F231778F7C30ED11CB5
:10010000F60131971082DF91CF911F910F91FF90EF
:10011000EF90DF90CF900895FC018081882341F01B
:10012000319680E090E0019621912223E1F7089535
:1001300080E090E00895DF92EF92FF920F931F937B
:10014000CF93DF937C01062FD72E142F0E948C00B3
:10015000EC01802F9D2D0E948C00C817D90729F52E
:10016000F7018081882319F1E02FFD2DD701119629
:1001700091918917A9F01123E1F4282F21562A31F2
:1001800018F0205E2A31B8F4292F21562A3118F0B0
:10019000205E2A3190F4891B803211F0803E79F480
:1001A0008D91882329F781E00BC080E009C081E0B0
:1001B00007C080E005C080E003C080E001C080E0AF
:1001C000DF91CF911F910F91FF90EF90DF900895F5
:1001D000EF92FF920F931F93CF93DF937C01162F23
:1001E000042F662331F0FC0180E011928F5F8117AC
:1001F000E1F7C0E00E94190AD82F8D3019F4CC2302
:10020000C9F31BC0883051F4CC23A1F3C1500E9424
:100210000805F701EC0FF11D1082ECCFC11750F764
:10022000F701EC0FF11D8083CF5F002311F00E94D6
:1002300002058D2F0E94F304DDCFDF91CF911F9136
:100240000F91FF90EF900895CF93DF93EC0180E042
:1002500090E00E945C088F3FB1F481E08F8B84E2D4
:1002600090E060E00E945308188E86E290E060E023
:100270000E945308198E85E290E060E00E945308C6
:100280001E8A1D8A22C01F8A88E090E0BE014FE0CE
:100290000E948308BE01605F7F4F88E190E044E0E8
:1002A0000E94830884E290E00E945C08882311F099
:1002B00081E0888F86E290E00E945C08898F85E269
:1002C00090E00E945C088D8B1E8ADF91CF9108958B
:1002D000EF92FF920F931F93CF93DF93EC0180E691
:1002E00090E060E00E946B058FEF94E3ACE08150FA
:1002F0009040A040E1F700C000008CE690E060E094
:100300000E946B0581E060E00E94B00488E790E005
:1003100061E00E946B058FEF94E3ACE08150904068
:10032000A040E1F700C0000087E890E060E00E9494
:100330006B0581E060E00E94B0048FE00E94EA0457
:100340008C2F9D2F6FE040E020E00E94E8008CE0C1
:100350000E94EA040F2EF6E9EF2EF0E0FF2EF02DBA
:10036000C70160E00E946B058FEF94E3ACE0815021
:100370009040A040E1F700C0000081E060E00E94F2
:10038000B0048DE990E060E00E946B058FEF94E38C
:10039000ACE081509040A040E1F700C000008FEA3F
:1003A00090E060E00E946B0581E060E00E94B00494
:1003B0008FE00E94EA048E01005F1F4FC80164E0D5
:1003C00041E021E00E94E8008CE00E94EA04C701BD
:1003D00060E00E946B058FEF94E3ACE081509040A9
:1003E000A040E1F700C0000081E060E00E94B0049E
:1003F0008CEB90E060E00E946B058FEF94E3ACE043
:1004000081509040A040E1F700C0000080E090E003
:1004100061E00E94530888E090E06C2F7D2F4FE050
:100420000E94640888E190E0B80144E00E946408FA
:1004300084E290E060E00E94530886E290E060E091
:100440000E94530885E290E060E00E945308DF912B
:10045000CF911F910F91FF90EF9008952F923F92AF
:100460004F925F926F927F928F929F92AF92BF92C4
:10047000CF92DF92EF92FF920F931F93CF93DF9370
:1004800000D000D000D0CDB7DEB7882349F060910E
:1004900001026F5F6093010286E290E00E945308C0
:1004A00080910102833041F481E08093000284E274
:1004B00090E061E00E94530880910002882309F4D3
:1004C00098C082E092E00E9488050E94A509809170
:1004D000FD019091FE0120E63AEE829FA001839FEC
:1004E000500D929F500D112460E070E04093E101A7
:1004F0005093E2016093E3017093E40121E030E066
:100500005901A81AB90A0F2EF0EAEF2EF6E8FF2ECD
:10051000F02D0F2EF1EECF2EF1E0DF2EF02D0F2E6D
:10052000FDEF8F2EF1E09F2EF02D6624772463944B
:100530000F2EFCEC4F2EF0E05F2EF02D0F2EFEED77
:100540002F2EF0E03F2EF02D2CC0C6010E94BB09DB
:100550008C01E816F906C9F3F4018083118385E262
:1005600090E0602F0E945308F40180819181530133
:10057000A81AB90AC20160E00E946B0581E060E040
:100580000E94B004CE010196B5010E944900CE013F
:10059000019661E00E946B05C10161E00E946B055C
:1005A0007801A114B10489F60E94A9091092E10111
:1005B0001092E2011092E3011092E4011092000205
:1005C000109201021092FE011092FD0184E290E06F
:1005D00060E00E94530886E290E060E00E945308C9
:1005E00085E290E060E00E94530882E092E00E9481
:1005F0008F0526960FB6F894DEBF0FBECDBFDF91F4
:10060000CF911F910F91FF90EF90DF90CF90BF900F
:10061000AF909F908F907F906F905F904F903F90A2
:100620002F9008954F925F926F927F928F929F9238
:10063000AF92BF92CF92DF92EF92FF920F931F93F0
:10064000CF93DF93CDB7DEB769970FB6F894DEBFCF
:100650000FBECDBF88EE91E00E9424018091FF0182
:10066000882341F008EE11E0C8010E946801C8012A
:100670000E94240180E00E942E02FE01319680E15A
:10068000DF011D928A95E9F70F2EF7EEEF2EF0E0CD
:10069000FF2EF02D0F2EF8EECF2EF1E0DF2EF02DF5
:1006A0000F2EF8EFAF2EF0E0BF2EF02D0F2EFAE058
:1006B0008F2EF1E09F2EF02D0F2EF1E06F2EF2E045
:1006C0007F2EF02D03E010E00F2EF6E14F2EF1E02B
:1006D0005F2EF02DC70160E00E946B0581E060E0B5
:1006E0000E94B004CE0101966FE040E020E00E943D
:1006F000E800CE010196B60140E00E949B008823ED
:10070000A1F5C50160E00E946B058FEF94E3ACE0BA
:1007100081509040A040E1F700C0000081E060E01F
:100720000E94B004C40161E00E946B05D3018C916A
:10073000B801681B7109CE0146960E944900CE019E
:10074000469661E00E946B05C20161E00E946B0564
:100750008FEF94E3ACE081509040A040E1F700C0FF
:10076000000081E00E942E02B5CFFE01719685E067
:10077000DF011D928A95E9F70F2EFAE1EF2EF1E0E5
:10078000FF2EF02D0F2EF8EFCF2EF1E0DF2EF02D03
:100790000F2EF9E2AF2EF1E0BF2EF02D0F2EF9E370
:1007A0008F2EF1E09F2EF02D0F2EF1E06F2EF2E054
:1007B0007F2EF02D03E010E00F2EF6E14F2EF1E03A
:1007C0005F2EF02DC70160E00E946B0581E060E0C4
:1007D0000E94B004CE01419664E041E020E00E9416
:1007E000E800CE014196B60141E00E949B008823BB
:1007F000A1F5C50160E00E946B058FEF94E3ACE0CA
:1008000081509040A040E1F700C0000081E060E02E
:100810000E94B004C40161E00E946B05D3018C9179
:10082000B801681B7109CE0146960E944900CE01AD
:10083000469661E00E946B05C20161E00E946B0573
:100840008FEF94E3ACE081509040A040E1F700C00E
:10085000000081E00E942E02B5CF69960FB6F89491
:10086000DEBF0FBECDBFDF91CF911F910F91FF90E3
:10087000EF90DF90CF90BF90AF909F908F907F9040
:100880006F905F904F9008958091050260910402EF
:1008900041E00E9421078FE99FE00197F1F700C036
:1008A0000000809105026091040240E00E9421074F
:1008B0008FEC97E00197F1F700C000000895682FD2
:1008C000809107020E94AB078091050260910802A7
:1008D00040E00E9421070E94440408950F938093F2
:1008E00007026093050240930802209306020093DA
:1008F00004026FEF0E949507809105026091080243
:100900004FEF0E94ED0680910502609106024FEFC5
:100910000E94ED0680910502609104024FEF0E9453
:10092000ED06809105026091060240E00E942107D9
:1009300088E30E945F0481E00E945F040F910895A4
:100940008CE10E945F04089588E10E945F0408958D
:1009500084E10E945F04089580E10E945F0408958D
:10096000882319F0862F805402C0862F80580E9459
:100970005F040895CF93DF938091DE01982F9F5FEE
:100980009093DE018051883110F40E94A40480917C
:10099000DE01893231F4C0E1D0E00E94A404219745
:1009A000E1F78091DE01893310F00E94A404809168
:1009B000DE01813560F0C0E1D0E00E94A4042197FF
:1009C000E1F71092DE0180E060E00E94B004DF9168
:1009D000CF9108950E945F0408951092DE0181E096
:1009E0000E945F040895682F809107020E94AB0760
:1009F000809105026091080241E00E9421070E9457
:100A0000440408950E94AC048AE20E94F30408950D
:100A10000E94AC0480E20E94F3040E94AC0408959A
:100A2000FF920F931F93CF93DF93F62E009709F455
:100A300040C000E010E0EAE0F0E0A801440F551FDC
:100A40009801220F331F220F331F220F331F240F51
:100A5000351FBF010E94350A8C01020F131F862F1C
:100A6000972F009751F70A301105E0F424C0BE011A
:100A70000E94350ACB016A307105C8F7FF2021F0CA
:100A8000805D0E94F30402C00E94F304C801BE010D
:100A90000E94350A062F172F0A30110560F0862FA5
:100AA000972F03C0C801CAE0D0E08A309105F8F65C
:100AB000E5CF00E010E0FF2029F0802F805D0E944C
:100AC000F30403C0802F0E94F304DF91CF911F91A4
:100AD0000F91FF900895CF93DF93EC01662319F4F3
:100AE00081E00E945F048881882331F021960E9472
:100AF000F30489918823D9F7DF91CF910895FC0100
:100B0000862F41836083642F4FEF0E94ED06089586
:100B1000FC018081618141E00E9421070895FC0170
:100B20008081618140E00E9421070895FC0180815D
:100B300061810E9474070895CF93DF9385E491E06B
:100B400060E00E946B0581E060E00E94B00485E5F2
:100B500091E061E00E946B058FEF94E3ACE081507F
:100B60009040A040E1F700C00000C3E6D1E0CE0114
:100B700061E00E946B058FEF94E3ACE08150904000
:100B8000A040E1F700C00000CE0161E00E946B05CB
:100B90008FEF94E3ACE081509040A040E1F700C0BB
:100BA0000000CE0161E00E946B058FEF94E3ACE0A2
:100BB00081509040A040E1F700C000000E94ED0489
:100BC000DF91CF91089585E691E060E00E946B058A
:100BD00081E060E00E94B00481E791E061E00E9462
:100BE0006B050E94190A813319F08233C9F51CC0C4
:100BF00080E061E00E94F90882E891E060E00E94F4
:100C00006B0581E060E00E94B0048BE891E061E058
:100C10000E946B058FEF94E3ACE081509040A040C0
:100C2000E1F700C00000089580E062E00E94F9084A
:100C300082E891E060E00E946B0581E060E00E9444
:100C4000B0048BE891E061E00E946B058FEF94E3C4
:100C5000ACE081509040A040E1F700C00000089552
:100C600081E991E060E00E946B058FEF94E3ACE0D6
:100C700081509040A040E1F700C0000008951F930C
:100C8000CF93DF9300D00F92CDB7DEB78DE991E01F
:100C900060E00E946B0581E060E00E94B004198270
:100CA0001A8210E00E94190A8D3019F41123D1F331
:100CB0001CC0883069F41123A9F311500E94080563
:100CC000E1E0F0E0EC0FFD1FE10FF11D1082EACF33
:100CD000123040F7E1E0F0E0EC0FFD1FE10FF11DF5
:100CE00080831F5F0E94F304DDCFCE0101960E9436
:100CF0006B0A682F81E00E94F9088AEA91E060E0BF
:100D00000E946B0581E060E00E94B0048BE891E0F6
:100D100061E00E946B058FEF94E3ACE0815090405E
:100D2000A040E1F700C000000F900F900F90DF91FE
:100D3000CF911F91089583EB91E060E00E946B05D5
:100D400081E060E00E94B00481EC91E061E00E94EB
:100D50006B050E94190A813319F0823331F403C004
:100D60000E94E30508950E943F0608950E94970996
:100D700060E875E280E090E00E94E9090E94A20824
:100D800082E063E047E026E005E00E946E048CE02C
:100D90000E94EA0482E092E060E040E00E947F0569
:100DA00078940E94120382ED91E060E00E946B054E
:100DB00081E060E00E94B00488EE91E061E00E9472
:100DC0006B058FEF94E3ACE081509040A040E1F7D9
:100DD00000C000000E949B06FDCF813081F0813071
:100DE00028F0823031F0833059F506C0EAE3F0E0B4
:100DF00008C0E4E3F0E005C0E1E3F0E002C0E7E3AF
:100E0000F0E0442319F04F3FD9F40EC0208181E077
:100E100090E0AC0102C0440F551F6A95E2F7BA0199
:100E20006095622360830895208181E090E0AC01A9
:100E300002C0440F551F6A95E2F7BA01622B608326
:100E40000895813081F0813028F0823031F0833094
:100E500051F506C0EBE3F0E008C0E5E3F0E005C0C3
:100E6000E2E3F0E002C0E8E3F0E0442379F041304F
:100E7000D1F4208181E090E0AC0102C0440F551F05
:100E80006A95E2F7BA01622B60830895208181E0C0
:100E900090E0AC0102C0440F551F6A95E2F7BA0119
:100EA0006095622360830895813081F0813028F05D
:100EB000823031F08330B1F406C0E9E3F0E008C0DD
:100EC000E3E3F0E005C0E0E3F0E002C0E6E3F0E0D9
:100ED000208130E0C90102C0959587956A95E2F7B7
:100EE0008170089580E00895813081F0813028F08C
:100EF000823031F08330C1F406C0EBE3F0E008C08B
:100F0000E5E3F0E005C0E2E3F0E002C0E8E3F0E092
:100F1000208181E090E0AC0102C0440F551F6A952A
:100F2000E2F7BA01622760830895813081F0813051
:100F300028F0823031F0833069F406C0EAE3F0E053
:100F400008C0E4E3F0E005C0E1E3F0E002C0E7E35D
:100F5000F0E060830895813081F0813028F08230A4
:100F600031F0833069F406C0EBE3F0E008C0E5E35C
:100F7000F0E005C0E2E3F0E002C0E8E3F0E0608307
:100F80000895813081F0813028F0823031F0833053
:100F9000C1F406C0EAE3F0E008C0E4E3F0E005C015
:100FA000E1E3F0E002C0E7E3F0E0808190E09C0143
:100FB00002C0359527956A95E2F720FF04C08FEFB0
:100FC000089580E0089580E00895813081F08130B7
:100FD00028F0823031F0833001F506C0EBE3F0E019
:100FE00008C0E5E3F0E005C0E2E3F0E002C0E8E3BA
:100FF000F0E0442319F0413081F408C080818F7003
:1010000080838081607F682B608308958081807FEA
:10101000808380816F70682B60830895813039F000
:10102000813070F0823031F0833061F406C028E303
:1010300030E008C025E330E005C022E330E002C024
:101040002BE330E0822F932F0895813039F08130E7
:1010500070F0823031F0833061F406C027E330E075
:1010600008C024E330E005C021E330E002C02AE3F9
:1010700030E0822F932F0895813039F0813070F065
:10108000823031F0833061F406C026E330E008C0DE
:1010900023E330E005C020E330E002C029E330E084
:1010A000822F932F08952CB321FDFDCF9FBB8EBBC4
:1010B0006DBBE29AE19A08952CB321FDFDCF9FBB51
:1010C0008EBBE09A8DB30895EF92FF920F931F931A
:1010D000CF93DF938C01C42F442371F0E62EF72EBB
:1010E000D0E0F70161917F01C8010E945308DF5FE2
:1010F0000F5F1F4FDC17A9F7DF91CF911F910F9161
:10110000FF90EF900895EF92FF920F931F93CF936C
:10111000DF938C01C42F442371F0E62EF72ED0E02C
:10112000C8010E945C08F70181937F01DF5F0F5FB8
:101130001F4FDC17A9F7DF91CF911F910F91FF90FF
:10114000EF9008956C9A689A699A81E064E04FEF95
:101150000E94ED0681E065E04FEF0E94ED0681E020
:1011600067E04FEF0E94ED0681E064E041E00E94FD
:1011700021076E9A08956C9881E066E04FEF0E9417
:10118000ED066E9A0895CF93C82F81E064E040E0A9
:101190000E942107CFB9779BFECF81E064E041E058
:1011A0000E9421078FE59AEE0197F1F700C0000039
:1011B000CF910895779BFECF8FB108950E94DA08F2
:1011C0008A3239F40E94DA088A3219F40E94DA0865
:1011D00008950895CF93DF93EC018881882331F03F
:1011E00021960E94C30889918823D9F7DF91CF9176
:1011F0000895CF93DF93D82FC62F8CED91E00E94F6
:10120000EA088D2F0E94C3088C2F0E94C308DF912B
:10121000CF910895FC018481813071F0813028F0F4
:10122000823089F08330E1F415C083B78F7B83BFB0
:1012300083B7877F83BF14C083B78F7B83BF83B798
:10124000886083BF0DC083B7806483BF83B7877F07
:1012500083BF06C083B7806483BF83B7886083BFC2
:1012600086818CBF8581833081F1843028F4813080
:10127000C1F0823000F50BC08530D9F1853078F1AE
:10128000863009F440C0873009F050C046C083B7AB
:101290008E7F83BF83B78D7F83BF83B78B7F83BFF1
:1012A000089583B7816083BF83B78D7F83BF83B782
:1012B0008B7F83BF089583B78E7F83BF83B78260A0
:1012C00083BF83B78B7F83BF089583B7816083BF5C
:1012D00083B7826083BF83B78B7F83BF089583B753
:1012E0008E7F83BF83B78D7F83BF83B7846083BFC7
:1012F000089583B7816083BF83B78D7F83BF83B732
:10130000846083BF089583B78E7F83BF83B7826075
:1013100083BF83B7846083BF089583B7816083BF31
:1013200083B7826083BF83B7846083BF089583E0FF
:101330008093E60181E08093E5018DE78093E701EA
:1013400081EE91E00E940A09089589B7826089BF01
:10135000089589B78D7F89BF0895FC0160817181EF
:101360008281938128EE33E040E050E00E94490AF8
:10137000822F932F08950E94AD096CE370E00E94C4
:10138000350A862F972F08951F920F920FB60F924E
:1013900011248F939F93AF93BF938091E10190911C
:1013A000E201A091E301B091E4010196A11DB11DFC
:1013B0008093E1019093E201A093E301B093E401F3
:1013C000BF91AF919F918F910F900FBE0F901F9083
:1013D0001895DC01CB01880F991FAA1FBB1F880F2E
:1013E000991FAA1FBB1F9C01AD01220F331F441F71
:1013F000551F220F331F441F551F60E072E18AE71B
:1014000090E00E94490A2150304029B930BD86E859
:1014100080BD80E88AB978948AB188618AB90895D4
:101420005D9BFECF8CB908951092DF018091E001A1
:1014300008958091DF018823E1F30E94140A089542
:101440008091DF0108951F920F920FB60F92112421
:101450008F938CB18093E00181E08093DF018F91C5
:101460000F900FBE0F901F901895AA1BBB1B51E148
:1014700007C0AA1FBB1FA617B70710F0A61BB70B04
:10148000881F991F5A95A9F780959095BC01CD01A9
:101490000895A1E21A2EAA1BBB1BFD010DC0AA1FB5
:1014A000BB1FEE1FFF1FA217B307E407F50720F0CD
:1014B000A21BB30BE40BF50B661F771F881F991F48
:1014C0001A9469F760957095809590959B01AC0191
:1014D000BD01CF010895FC0188279927E894219147
:1014E0002032E9F3293010F02E30C8F32B3241F0CE
:1014F0002D3239F4689404C00E94890A820F911D2C
:10150000219120532A30C0F31EF4909581959F4F6E
:1015100008957AE0979F902D879F802D910D11243B
:061520000895F894FFCFCE
:1015260046697273742052554E202100796F7520DA
:101536006E65656420746F0073657420796F7572CB
:101546002050494E20210073657420757365722002
:101556004E616D653A00476F6F642021004E6F77CC
:10156600205365742050494E434F44452021007353
:1015760065742050494E434F44453A004163636FBA
:10158600756E742053617665642021004C6F67691F
:101596006E20626C6F636B656420466F7200204D2F
:1015A600696E7473202100456E74657220557365EB
:1015B60072204E616D653A0057726F6E67207573C3
:1015C6006572206E616D6520210054727920616715
:1015D60061696E20210074727900456E746572200F
:1015E60050494E434F44453A0057726F6E6720503C
:1015F600494E434F4445202100547279206167616A
:10160600696E21200057656C636F6D6520546F20ED
:10161600796F757200536D61727420486F6D655EE7
:101626005F5E002E0043686F6F736520526F6F6DAB
:10163600003129526F6F6D31203229526F6F6D2044
:101646003200616C6C20646F6E6500456E6A6F795E
:101656000077726F6E6720696E70757400736574BB
:101666002041432074656D703A0074656D70207377
:1016760065740043686F6F73652C4F7074696F6E85
:10168600003129526F6F6D203229414320756E69F2
:0E169600740057656C636F6D652021002A009B
:00000001FF
